{
  "_format": "hh-sol-artifact-1",
  "contractName": "TodoList",
  "sourceName": "contracts/TodoList.sol",
  "abi": [
    {
      "anonymous": false,
      "inputs": [
        {
          "indexed": false,
          "internalType": "uint256",
          "name": "id",
          "type": "uint256"
        },
        {
          "indexed": false,
          "internalType": "bool",
          "name": "completed",
          "type": "bool"
        }
      ],
      "name": "TaskCompleted",
      "type": "event"
    },
    {
      "anonymous": false,
      "inputs": [
        {
          "indexed": false,
          "internalType": "uint256",
          "name": "id",
          "type": "uint256"
        },
        {
          "indexed": false,
          "internalType": "string",
          "name": "content",
          "type": "string"
        },
        {
          "indexed": false,
          "internalType": "uint256",
          "name": "createdAt",
          "type": "uint256"
        },
        {
          "indexed": false,
          "internalType": "uint256",
          "name": "order",
          "type": "uint256"
        }
      ],
      "name": "TaskCreated",
      "type": "event"
    },
    {
      "anonymous": false,
      "inputs": [
        {
          "indexed": false,
          "internalType": "uint256",
          "name": "id",
          "type": "uint256"
        },
        {
          "indexed": false,
          "internalType": "uint256",
          "name": "newOrder",
          "type": "uint256"
        }
      ],
      "name": "TaskOrderUpdated",
      "type": "event"
    },
    {
      "inputs": [
        {
          "internalType": "string",
          "name": "_content",
          "type": "string"
        }
      ],
      "name": "createTask",
      "outputs": [],
      "stateMutability": "nonpayable",
      "type": "function"
    },
    {
      "inputs": [
        {
          "internalType": "uint256",
          "name": "_id",
          "type": "uint256"
        }
      ],
      "name": "deleteTask",
      "outputs": [],
      "stateMutability": "nonpayable",
      "type": "function"
    },
    {
      "inputs": [],
      "name": "taskCount",
      "outputs": [
        {
          "internalType": "uint256",
          "name": "",
          "type": "uint256"
        }
      ],
      "stateMutability": "view",
      "type": "function"
    },
    {
      "inputs": [
        {
          "internalType": "uint256",
          "name": "",
          "type": "uint256"
        }
      ],
      "name": "tasks",
      "outputs": [
        {
          "internalType": "uint256",
          "name": "id",
          "type": "uint256"
        },
        {
          "internalType": "string",
          "name": "content",
          "type": "string"
        },
        {
          "internalType": "bool",
          "name": "completed",
          "type": "bool"
        },
        {
          "internalType": "uint256",
          "name": "createdAt",
          "type": "uint256"
        },
        {
          "internalType": "uint256",
          "name": "order",
          "type": "uint256"
        }
      ],
      "stateMutability": "view",
      "type": "function"
    },
    {
      "inputs": [
        {
          "internalType": "uint256",
          "name": "_id",
          "type": "uint256"
        }
      ],
      "name": "toggleCompleted",
      "outputs": [],
      "stateMutability": "nonpayable",
      "type": "function"
    },
    {
      "inputs": [
        {
          "internalType": "uint256",
          "name": "_id",
          "type": "uint256"
        },
        {
          "internalType": "uint256",
          "name": "_newOrder",
          "type": "uint256"
        }
      ],
      "name": "updateTaskOrder",
      "outputs": [],
      "stateMutability": "nonpayable",
      "type": "function"
    }
  ],
  "bytecode": "0x6080604052348015600f57600080fd5b50610efb8061001f6000396000f3fe608060405234801561001057600080fd5b50600436106100625760003560e01c8063111002aa14610067578063455f502414610083578063560f31921461009f5780638d977672146100bb57806393d9ab1a146100ef578063b6cb58a51461010b575b600080fd5b610081600480360381019061007c919061075b565b610129565b005b61009d600480360381019061009891906107da565b610261565b005b6100b960048036038101906100b491906107da565b6102f4565b005b6100d560048036038101906100d091906107da565b610416565b6040516100e69594939291906108b0565b60405180910390f35b6101096004803603810190610104919061090a565b6104e1565b005b61011361059e565b604051610120919061094a565b60405180910390f35b600081511161016d576040517f08c379a0000000000000000000000000000000000000000000000000000000008152600401610164906109b1565b60405180910390fd5b60008081548092919061017f90610a00565b91905055506040518060a00160405280600054815260200182815260200160001515815260200142815260200160005481525060016000805481526020019081526020016000206000820151816000015560208201518160010190816101e59190610c54565b5060408201518160020160006101000a81548160ff02191690831515021790555060608201518160030155608082015181600401559050507fb8bf6379f90c5d70f70429564879392d448aab0a6849cb01675122756962e84560005482426000546040516102569493929190610d26565b60405180910390a150565b60006001600083815260200190815260200160002090508060020160009054906101000a900460ff16158160020160006101000a81548160ff0219169083151502179055507fe21fa966ca5cd02748c0752352d18c48165e61cb55b4c29cccf924b5a95fcff1828260020160009054906101000a900460ff166040516102e8929190610d72565b60405180910390a15050565b60008111801561030657506000548111155b610345576040517f08c379a000000000000000000000000000000000000000000000000000000000815260040161033c90610de7565b60405180910390fd5b600060016000838152602001908152602001600020600101805461036890610a77565b9050116103aa576040517f08c379a00000000000000000000000000000000000000000000000000000000081526004016103a190610e53565b60405180910390fd5b600160008281526020019081526020016000206000808201600090556001820160006103d691906105a4565b6002820160006101000a81549060ff021916905560038201600090556004820160009055505060008081548092919061040e90610e73565b919050555050565b600160205280600052604060002060009150905080600001549080600101805461043f90610a77565b80601f016020809104026020016040519081016040528092919081815260200182805461046b90610a77565b80156104b85780601f1061048d576101008083540402835291602001916104b8565b820191906000526020600020905b81548152906001019060200180831161049b57829003601f168201915b5050505050908060020160009054906101000a900460ff16908060030154908060040154905085565b600060016000848152602001908152602001600020600101805461050490610a77565b905011610546576040517f08c379a000000000000000000000000000000000000000000000000000000000815260040161053d90610e53565b60405180910390fd5b8060016000848152602001908152602001600020600401819055507f0b7ed016c6a3b0a0180e09758e7e633026c41c55e16b6f611b101417674029e68282604051610592929190610e9c565b60405180910390a15050565b60005481565b5080546105b090610a77565b6000825580601f106105c257506105e1565b601f0160209004906000526020600020908101906105e091906105e4565b5b50565b5b808211156105fd5760008160009055506001016105e5565b5090565b6000604051905090565b600080fd5b600080fd5b600080fd5b600080fd5b6000601f19601f8301169050919050565b7f4e487b7100000000000000000000000000000000000000000000000000000000600052604160045260246000fd5b6106688261061f565b810181811067ffffffffffffffff8211171561068757610686610630565b5b80604052505050565b600061069a610601565b90506106a6828261065f565b919050565b600067ffffffffffffffff8211156106c6576106c5610630565b5b6106cf8261061f565b9050602081019050919050565b82818337600083830152505050565b60006106fe6106f9846106ab565b610690565b90508281526020810184848401111561071a5761071961061a565b5b6107258482856106dc565b509392505050565b600082601f83011261074257610741610615565b5b81356107528482602086016106eb565b91505092915050565b6000602082840312156107715761077061060b565b5b600082013567ffffffffffffffff81111561078f5761078e610610565b5b61079b8482850161072d565b91505092915050565b6000819050919050565b6107b7816107a4565b81146107c257600080fd5b50565b6000813590506107d4816107ae565b92915050565b6000602082840312156107f0576107ef61060b565b5b60006107fe848285016107c5565b91505092915050565b610810816107a4565b82525050565b600081519050919050565b600082825260208201905092915050565b60005b83811015610850578082015181840152602081019050610835565b60008484015250505050565b600061086782610816565b6108718185610821565b9350610881818560208601610832565b61088a8161061f565b840191505092915050565b60008115159050919050565b6108aa81610895565b82525050565b600060a0820190506108c56000830188610807565b81810360208301526108d7818761085c565b90506108e660408301866108a1565b6108f36060830185610807565b6109006080830184610807565b9695505050505050565b600080604083850312156109215761092061060b565b5b600061092f858286016107c5565b9250506020610940858286016107c5565b9150509250929050565b600060208201905061095f6000830184610807565b92915050565b7f5461736b20636f6e74656e742072657175697265640000000000000000000000600082015250565b600061099b601583610821565b91506109a682610965565b602082019050919050565b600060208201905081810360008301526109ca8161098e565b9050919050565b7f4e487b7100000000000000000000000000000000000000000000000000000000600052601160045260246000fd5b6000610a0b826107a4565b91507fffffffffffffffffffffffffffffffffffffffffffffffffffffffffffffffff8203610a3d57610a3c6109d1565b5b600182019050919050565b7f4e487b7100000000000000000000000000000000000000000000000000000000600052602260045260246000fd5b60006002820490506001821680610a8f57607f821691505b602082108103610aa257610aa1610a48565b5b50919050565b60008190508160005260206000209050919050565b60006020601f8301049050919050565b600082821b905092915050565b600060088302610b0a7fffffffffffffffffffffffffffffffffffffffffffffffffffffffffffffffff82610acd565b610b148683610acd565b95508019841693508086168417925050509392505050565b6000819050919050565b6000610b51610b4c610b47846107a4565b610b2c565b6107a4565b9050919050565b6000819050919050565b610b6b83610b36565b610b7f610b7782610b58565b848454610ada565b825550505050565b600090565b610b94610b87565b610b9f818484610b62565b505050565b5b81811015610bc357610bb8600082610b8c565b600181019050610ba5565b5050565b601f821115610c0857610bd981610aa8565b610be284610abd565b81016020851015610bf1578190505b610c05610bfd85610abd565b830182610ba4565b50505b505050565b600082821c905092915050565b6000610c2b60001984600802610c0d565b1980831691505092915050565b6000610c448383610c1a565b9150826002028217905092915050565b610c5d82610816565b67ffffffffffffffff811115610c7657610c75610630565b5b610c808254610a77565b610c8b828285610bc7565b600060209050601f831160018114610cbe5760008415610cac578287015190505b610cb68582610c38565b865550610d1e565b601f198416610ccc86610aa8565b60005b82811015610cf457848901518255600182019150602085019450602081019050610ccf565b86831015610d115784890151610d0d601f891682610c1a565b8355505b6001600288020188555050505b505050505050565b6000608082019050610d3b6000830187610807565b8181036020830152610d4d818661085c565b9050610d5c6040830185610807565b610d696060830184610807565b95945050505050565b6000604082019050610d876000830185610807565b610d9460208301846108a1565b9392505050565b7f496e76616c6964207461736b2049440000000000000000000000000000000000600082015250565b6000610dd1600f83610821565b9150610ddc82610d9b565b602082019050919050565b60006020820190508181036000830152610e0081610dc4565b9050919050565b7f5461736b20646f6573206e6f7420657869737400000000000000000000000000600082015250565b6000610e3d601383610821565b9150610e4882610e07565b602082019050919050565b60006020820190508181036000830152610e6c81610e30565b9050919050565b6000610e7e826107a4565b915060008203610e9157610e906109d1565b5b600182039050919050565b6000604082019050610eb16000830185610807565b610ebe6020830184610807565b939250505056fea26469706673582212209705699cab9b0985405420ba44139e8c2287cb3f6e59f12b899526160b56c62264736f6c634300081c0033",
  "linkReferences": {},
  "deployedLinkReferences": {}
}