{
  "_format": "hh-sol-artifact-1",
  "contractName": "TodoList",
  "sourceName": "contracts/TodoList.sol",
  "abi": [
    {
      "anonymous": false,
      "inputs": [
        {
          "indexed": false,
          "internalType": "uint256",
          "name": "id",
          "type": "uint256"
        },
        {
          "indexed": false,
          "internalType": "bool",
          "name": "completed",
          "type": "bool"
        }
      ],
      "name": "TaskCompleted",
      "type": "event"
    },
    {
      "anonymous": false,
      "inputs": [
        {
          "indexed": false,
          "internalType": "uint256",
          "name": "id",
          "type": "uint256"
        },
        {
          "indexed": false,
          "internalType": "string",
          "name": "content",
          "type": "string"
        },
        {
          "indexed": false,
          "internalType": "uint256",
          "name": "createdAt",
          "type": "uint256"
        }
      ],
      "name": "TaskCreated",
      "type": "event"
    },
    {
      "inputs": [
        {
          "internalType": "string",
          "name": "_content",
          "type": "string"
        }
      ],
      "name": "createTask",
      "outputs": [],
      "stateMutability": "nonpayable",
      "type": "function"
    },
    {
      "inputs": [
        {
          "internalType": "uint256",
          "name": "_id",
          "type": "uint256"
        }
      ],
      "name": "deleteTask",
      "outputs": [],
      "stateMutability": "nonpayable",
      "type": "function"
    },
    {
      "inputs": [],
      "name": "taskCount",
      "outputs": [
        {
          "internalType": "uint256",
          "name": "",
          "type": "uint256"
        }
      ],
      "stateMutability": "view",
      "type": "function"
    },
    {
      "inputs": [
        {
          "internalType": "uint256",
          "name": "",
          "type": "uint256"
        }
      ],
      "name": "tasks",
      "outputs": [
        {
          "internalType": "uint256",
          "name": "id",
          "type": "uint256"
        },
        {
          "internalType": "string",
          "name": "content",
          "type": "string"
        },
        {
          "internalType": "bool",
          "name": "completed",
          "type": "bool"
        },
        {
          "internalType": "uint256",
          "name": "createdAt",
          "type": "uint256"
        }
      ],
      "stateMutability": "view",
      "type": "function"
    },
    {
      "inputs": [
        {
          "internalType": "uint256",
          "name": "_id",
          "type": "uint256"
        }
      ],
      "name": "toggleCompleted",
      "outputs": [],
      "stateMutability": "nonpayable",
      "type": "function"
    }
  ],
  "bytecode": "0x6080604052348015600f57600080fd5b50610d6d8061001f6000396000f3fe608060405234801561001057600080fd5b50600436106100575760003560e01c8063111002aa1461005c578063455f502414610078578063560f3192146100945780638d977672146100b0578063b6cb58a5146100e3575b600080fd5b61007660048036038101906100719190610652565b610101565b005b610092600480360381019061008d91906106d1565b610223565b005b6100ae60048036038101906100a991906106d1565b6102b6565b005b6100ca60048036038101906100c591906106d1565b6103d0565b6040516100da94939291906107a7565b60405180910390f35b6100eb610495565b6040516100f891906107f3565b60405180910390f35b6000815111610145576040517f08c379a000000000000000000000000000000000000000000000000000000000815260040161013c9061085a565b60405180910390fd5b600080815480929190610157906108a9565b9190505550604051806080016040528060005481526020018281526020016000151581526020014281525060016000805481526020019081526020016000206000820151816000015560208201518160010190816101b59190610afd565b5060408201518160020160006101000a81548160ff021916908315150217905550606082015181600301559050507f146b4b2e55f6b6a4a8ac8239494150cd5f96b163e2d019440f369714f4a31eb8600054824260405161021893929190610bcf565b60405180910390a150565b60006001600083815260200190815260200160002090508060020160009054906101000a900460ff16158160020160006101000a81548160ff0219169083151502179055507fe21fa966ca5cd02748c0752352d18c48165e61cb55b4c29cccf924b5a95fcff1828260020160009054906101000a900460ff166040516102aa929190610c0d565b60405180910390a15050565b6000811180156102c857506000548111155b610307576040517f08c379a00000000000000000000000000000000000000000000000000000000081526004016102fe90610c82565b60405180910390fd5b600060016000838152602001908152602001600020600101805461032a90610920565b90501161036c576040517f08c379a000000000000000000000000000000000000000000000000000000000815260040161036390610cee565b60405180910390fd5b60016000828152602001908152602001600020600080820160009055600182016000610398919061049b565b6002820160006101000a81549060ff0219169055600382016000905550506000808154809291906103c890610d0e565b919050555050565b60016020528060005260406000206000915090508060000154908060010180546103f990610920565b80601f016020809104026020016040519081016040528092919081815260200182805461042590610920565b80156104725780601f1061044757610100808354040283529160200191610472565b820191906000526020600020905b81548152906001019060200180831161045557829003601f168201915b5050505050908060020160009054906101000a900460ff16908060030154905084565b60005481565b5080546104a790610920565b6000825580601f106104b957506104d8565b601f0160209004906000526020600020908101906104d791906104db565b5b50565b5b808211156104f45760008160009055506001016104dc565b5090565b6000604051905090565b600080fd5b600080fd5b600080fd5b600080fd5b6000601f19601f8301169050919050565b7f4e487b7100000000000000000000000000000000000000000000000000000000600052604160045260246000fd5b61055f82610516565b810181811067ffffffffffffffff8211171561057e5761057d610527565b5b80604052505050565b60006105916104f8565b905061059d8282610556565b919050565b600067ffffffffffffffff8211156105bd576105bc610527565b5b6105c682610516565b9050602081019050919050565b82818337600083830152505050565b60006105f56105f0846105a2565b610587565b90508281526020810184848401111561061157610610610511565b5b61061c8482856105d3565b509392505050565b600082601f8301126106395761063861050c565b5b81356106498482602086016105e2565b91505092915050565b60006020828403121561066857610667610502565b5b600082013567ffffffffffffffff81111561068657610685610507565b5b61069284828501610624565b91505092915050565b6000819050919050565b6106ae8161069b565b81146106b957600080fd5b50565b6000813590506106cb816106a5565b92915050565b6000602082840312156106e7576106e6610502565b5b60006106f5848285016106bc565b91505092915050565b6107078161069b565b82525050565b600081519050919050565b600082825260208201905092915050565b60005b8381101561074757808201518184015260208101905061072c565b60008484015250505050565b600061075e8261070d565b6107688185610718565b9350610778818560208601610729565b61078181610516565b840191505092915050565b60008115159050919050565b6107a18161078c565b82525050565b60006080820190506107bc60008301876106fe565b81810360208301526107ce8186610753565b90506107dd6040830185610798565b6107ea60608301846106fe565b95945050505050565b600060208201905061080860008301846106fe565b92915050565b7f5461736b20636f6e74656e742072657175697265640000000000000000000000600082015250565b6000610844601583610718565b915061084f8261080e565b602082019050919050565b6000602082019050818103600083015261087381610837565b9050919050565b7f4e487b7100000000000000000000000000000000000000000000000000000000600052601160045260246000fd5b60006108b48261069b565b91507fffffffffffffffffffffffffffffffffffffffffffffffffffffffffffffffff82036108e6576108e561087a565b5b600182019050919050565b7f4e487b7100000000000000000000000000000000000000000000000000000000600052602260045260246000fd5b6000600282049050600182168061093857607f821691505b60208210810361094b5761094a6108f1565b5b50919050565b60008190508160005260206000209050919050565b60006020601f8301049050919050565b600082821b905092915050565b6000600883026109b37fffffffffffffffffffffffffffffffffffffffffffffffffffffffffffffffff82610976565b6109bd8683610976565b95508019841693508086168417925050509392505050565b6000819050919050565b60006109fa6109f56109f08461069b565b6109d5565b61069b565b9050919050565b6000819050919050565b610a14836109df565b610a28610a2082610a01565b848454610983565b825550505050565b600090565b610a3d610a30565b610a48818484610a0b565b505050565b5b81811015610a6c57610a61600082610a35565b600181019050610a4e565b5050565b601f821115610ab157610a8281610951565b610a8b84610966565b81016020851015610a9a578190505b610aae610aa685610966565b830182610a4d565b50505b505050565b600082821c905092915050565b6000610ad460001984600802610ab6565b1980831691505092915050565b6000610aed8383610ac3565b9150826002028217905092915050565b610b068261070d565b67ffffffffffffffff811115610b1f57610b1e610527565b5b610b298254610920565b610b34828285610a70565b600060209050601f831160018114610b675760008415610b55578287015190505b610b5f8582610ae1565b865550610bc7565b601f198416610b7586610951565b60005b82811015610b9d57848901518255600182019150602085019450602081019050610b78565b86831015610bba5784890151610bb6601f891682610ac3565b8355505b6001600288020188555050505b505050505050565b6000606082019050610be460008301866106fe565b8181036020830152610bf68185610753565b9050610c0560408301846106fe565b949350505050565b6000604082019050610c2260008301856106fe565b610c2f6020830184610798565b9392505050565b7f496e76616c6964207461736b2049440000000000000000000000000000000000600082015250565b6000610c6c600f83610718565b9150610c7782610c36565b602082019050919050565b60006020820190508181036000830152610c9b81610c5f565b9050919050565b7f5461736b20646f6573206e6f7420657869737400000000000000000000000000600082015250565b6000610cd8601383610718565b9150610ce382610ca2565b602082019050919050565b60006020820190508181036000830152610d0781610ccb565b9050919050565b6000610d198261069b565b915060008203610d2c57610d2b61087a565b5b60018203905091905056fea2646970667358221220bbd90ce9650c4e3311e1bac7cd99e490ba4af6b749d22fba80da377c01160b4e64736f6c634300081c0033",
  "linkReferences": {},
  "deployedLinkReferences": {}
}